:100000005FC007C006C005C004C004C002C001C074
:1000100000C018958FB6BA2FB37071F5B2E0B7BBB8
:10002000C39A6894A0F8A2FD14C06894A1F897FC44
:1000300009C0A2FE0EC06A9561F4E894A2F8689423
:10004000A3F807C06A9529F4E89497F86CE06894DF
:10005000A2F8B4E0BA95F1F7B39905C06894A4FC8E
:10006000E89492F803C0E894A4F892F8BAE0B7BB19
:100070006894B299E89490F8AF3C18F0982FAA27AA
:100080001DC0A03910F0A39519C0A03420F0A035F0
:10009000D0F309F4992DA039B0F7BA2FB770B43066
:1000A00038F497FD03C0BB2309F002C0C39801C018
:1000B000C39AA395BA2FB77009F4990F8FBE1895FC
:1000C000F89435E831BF3AE038BB32E037BB30E86E
:1000D00038B934E836B933E637B935E033BF32E002
:1000E00039BF3FEF3DBD33273EBD3BE730BFAA27B9
:1000F0009FEF9924AA24689434B733FD94F8E8E07C
:100100008FEFEA958083E9F785B9B3990BC0332760
:1001100043E034D140E032D141E030D142E02ED151
:10012000689493F83AE037BB43E022D1732F3B3A0F
:1001300081F444E01DD1B32E45E01AD1C32EBC1486
:1001400040F434E03B0D28F03C1518F4689496F820
:1001500001C0772740E00CD1339510D1332321F42F
:1001600041E006D133950AD194FE05C040E000D1AC
:10017000339509F003D1CC2793FCCC273FE031BD68
:100180007894A0FEFECFA1FE2CC03EB5332341F0F3
:100190004DB5431729F038B736FFFDCF30E438BFEF
:1001A00035B16894343020F03083E395E770E894FB
:1001B00095F844275527FE2FE7E03081430F33277A
:1001C000531FEA95D2F7EF2F34EC36B93699FECFAC
:1001D000579547955795479557954795842FE89498
:1001E000A1F8E894A0F8A89590FC1DC093FC21C04C
:1001F00097FC0FC096FE1AC095FE05C091FC06C084
:10020000332787D0BECF6ED084D0BBCF30E881D02B
:10021000B8CF92FE05C06894A4F8E89497F87727C1
:1002200039ED77D0AECF3DB574D014C0332771D03F
:1002300011C0DD273C2F332319F0DE5C3A95E9F736
:10024000DEBD3A2F3A953F7121F4C395C63008F0D0
:10025000CC2797CF96FC95CF93FC93CF92FE1CC0F2
:100260006894A4F871FD03C0C82E72608ACF70FD37
:1002700088CF3C2D3450831708F083CFB82E44E04C
:100280003B2D7CD045E03C2D79D043E03BEA732FF9
:1002900075D0689496F875CFA2FC73CFA3FC17C0F5
:1002A00090FE0DC070FD6DCF8C3010F0883C10F0CA
:1002B000772767CFB82E716071FDE1CF62CF70FFF5
:1002C00060CF97FC5ECF6BEB689497F85ACFE894B9
:1002D000A3F8382F3B1960F3369536953695C82E1E
:1002E000C31ACDCF8B1508F48B2D8C1580F43C2DC3
:1002F000381B61D03C2D3B194AD030E3430F3327E4
:10030000531F403F10F4342F089530EF08953327E2
:1003100008954EB5332341F04423E89469F4CC2387
:10032000689451F0CA9508954423E89429F0CC23A9
:10033000689411F0CA9508950EF4CFE1CC2309F02A
:10034000CA95332399F0689491F84EB5341770F03C
:10035000442359F0439509F44FEF46954695532FA2
:1003600056955695351B340F01C03CE43EBD0895AB
:10037000E199FECF4EBBE09A3DB30895E199FECFDF
:100380004EBB3DBBF894E29AE19A78940895002719
:10039000111B21E1441F551F2A9509F40895001FE0
:1003A000111F031B104028F4030F08F413958894C1
:1003B000F1CF0894EFCF132F0027179507951795C6
:1003C00007951F73532F4427401B510B0895FFFFC0
:06040000B10B00FBFF90B0
:00000001FF
