:020000020000FC
:1000000042C007C006C005C004C004C002C001C091
:1000100000C01895AFB6689490FC82F8982F937042
:10002000A9F490F892E097BBC39AB299E89481FE44
:1000300003C081F81EF404C081F816F4689494F8A3
:100040006894B399E89493F89AE097BB803509F4E3
:10005000782D803988F4803410F0803568F0982F3E
:10006000977021F092FD04C077FF02C0C39801C0D1
:10007000C39A939593FD770F8395803C11F488275D
:1000800075B1AFBE1895F89405E801BF0AE008BB4A
:1000900002E007BB00E808B904E806B903E607B9BF
:1000A00005E003BF02E009BF6FEF6DBD00270EBD85
:1000B0001AE710BF88249924E8E0EA956083E9F7FD
:1000C00065B9689414B713FD82F8882775B1DD27E8
:1000D000B39903C096F826E07DD10AE007BB332729
:1000E00023E06FD1D02F6CD1B02E6AD1C02E68D151
:1000F00011F4689485F807E1D02EBB27CC27EE24B5
:10010000FF240FE001BD789490FEFECF2BD096FE29
:1001100008C0082F000F000F007C81FC0DB50EBD3C
:1001200014C0A6D0CED094FE0FC0E89494F885FCFD
:100130000BC084FC09C081FE07C0DD2029F497FEB6
:1001400018F0B62EB5E0A4E071D00027D012DA94F2
:10015000C013CA9580FE02C0F012FA94A895E894E4
:1001600090F8D2CF24E028BF000008B702FFFDCFEF
:100170001EB5112371F031E0183C18F008EC0EBDEB
:10018000339520E428BF000008B706FFFDCF3A955D
:10019000C1F705B16894003120F04DE0F42EE894E9
:1001A00080F886F885FE0AC04D2F012FFBD005B1DF
:1001B000030F6894332309F4E89487F886FE07C098
:1001C00095FE2EC092FE2CC0689480F829C0DD20D8
:1001D00049F485FE07C0462F401B20F0423010F046
:1001E000062F0250E395E770008322273327FE2F66
:1001F000E7E00081200F0027301FEA95D2F7EF2FAC
:10020000379527953795279537952795622FE89449
:10021000683128F008EF061710F0689492F897F804
:1002200004EC06B93699FECF1EBD08950DB581FCCC
:100230001DC0002780FE04C0FF20C1F000E816C0EA
:1002400086FC14C0BB2399F485FE10C0DD2071F438
:10025000C61660F00FEF6B1548F00C2D061B40EE34
:10026000A1D00C2D0B198AD00FE1020FE02E0895BA
:100270000E2D2EB5201721F185FE1DC080FC1BC060
:10028000002331F4222359F0CC2341F00FE107C0C1
:1002900081FC11C0222319F4CC2391F4C7E1021789
:1002A00050F0222311F40CE406C0302F321B323000
:1002B00010F0022F0E5F0EBD002311F0689495F828
:1002C0000895BB2301F11B2F1A95F9F11A9539F105
:1002D0001A95D1F01A9591F01A9521F0689484F846
:1002E000BB2746C081FEFACFAA9569F4DD270B2D06
:1002F0002081021B10F00395D02F04C081FC03C0A5
:1003000000ECE02EBA9534C081FCE8CF93FC18C015
:10031000EA940E2D0F31B8F7EE24AEE5F3CF81FC51
:10032000DDCF93FC0DC0AA9571F797FED7CFC62EEF
:10033000062F0B1998F2069506950695C01AE2CF7E
:1003400097FECCCFC62EB1E0DECF0C2D0B1930F2CC
:10035000043020F223E00D2F302F3CD00B2D38D06D
:100360000C2D36D03195032F34D0689485F8CACF40
:100370006894BB2309F4E89483F808954427551B37
:1003800011E1221F331F1A9509F40895441F551FC8
:10039000401B504028F4400F08F453958894F1CF47
:1003A0000894EFCF5527222733278894079510F418
:1003B000240F351F8894441F551F0023B1F708955B
:1003C0002395E199FECF2EBBE09A0DB3300F08952F
:1003D000300F2395E199FECF2EBB0DBBF894E29A26
:0603E000E19A78940895F3
:00000001FF
