:020000020000FC
:100000005FC007C006C005C004C004C002C001C074
:1000100000C018958FB6BA2FB37071F5B2E0B7BBB8
:10002000C39A6894A0F8A2FD14C06894A1F897FC44
:1000300009C0A2FE0EC06A9561F4E894A2F8689423
:10004000A3F807C06A9529F4E89497F868E16894E2
:10005000A2F8B4E0BA95F1F7B39905C06894A4FC8E
:10006000E89492F803C0E894A4F892F8BAE0B7BB19
:100070006894B299E89490F8AF3C18F0982FAA27AA
:100080001DC0A03910F0A39519C0A03420F0A035F0
:10009000D0F309F4992DA039B0F7BA2FB770B43066
:1000A00038F497FD03C0BB2309F002C0C39801C018
:1000B000C39AA395BA2FB77009F4990F8FBE1895FC
:1000C000F89435E831BF3AE038BB32E037BB30E86E
:1000D00038B934E836B933E637B935E033BF32E002
:1000E00039BF3FEF3DBD33273EBD3BE630BFAA27BA
:1000F0009FEF9924AA24689434B733FD94F8E8E07C
:100100008FEFEA958083E9F785B9B3990BC0332760
:1001100043E046D140E044D141E042D142E040D109
:10012000689493F83AE037BB43E034D1732F3B3AFD
:1001300081F444E02FD1B32E45E02CD1C32EBC1462
:1001400040F434E03B0D28F03C1518F4689496F820
:1001500001C0772740E01ED1339522D1332321F40B
:1001600041E018D133951CD194FE05C040E012D176
:10017000339509F015D1CC2793FCCC273FE031BD56
:100180007894A0FEFECFA1FE32C03EB5332341F0ED
:100190004DB5431729F038B736FFFDCF30E438BFEF
:1001A00035B1343030F491FE02C06894A5F86894FB
:1001B00005C03083E395E770E894A5F895F84427E7
:1001C0005527FE2FE7E03081430F3327531FEA9571
:1001D000D2F7EF2F34EC36B93699FECF57954795C5
:1001E0005795479557954795842FE894A1F8E8943B
:1001F000A0F8A89590FC19C093FC1DC097FC0AC0FC
:1002000096FE16C095FE03C0332794D0BACF7BD09C
:1002100091D0B7CF92FE06C06894A4F8E89497F8FE
:10022000A6F8772739ED86D0ACCF3DB583D014C082
:10023000332780D011C0DD273C2F332319F0DE5C3B
:100240003A95E9F7DEBD3A2F3A953F7121F4C3950F
:10025000C63008F0CC2795CF96FC93CF93FC91CF76
:1002600092FE28C06894A4F871FD03C0C82E726085
:1002700088CF70FD86CF3C2D3450831708F081CF96
:10028000B82EA6FE08C03C2D3B19369536953695FE
:100290003B1508F4B31A44E03B2D82D045E03C2DD9
:1002A0007FD043E03BEA732F7BD0689496F8E894C4
:1002B000A6F867CFA2FC65CFA3FC1BC090FE11C0BF
:1002C00070FD5FCF8C3010F0883C20F0E894A6F8E9
:1002D000772757CFB82E71606894A6F871FDD1CFFB
:1002E00050CF70FF4ECF97FC4CCF6CE8689497F8D6
:1002F00048CFE894A3F8382F3B1940F3369536954C
:10030000C82EC31ABECF8B1508F48B2D8C1580F424
:100310003C2D381B62D03C2D3B194BD030E3430FB2
:100320003327531F403F10F4342F089530EF0895C2
:1003300033270895A5FE02C030E8CC274EB53323FD
:1003400041F04423E89469F4CC23689451F0CA95B1
:1003500008954423E89429F0CC23689411F0CA95B9
:1003600008950EF4C7E1CC2309F0CA95332381F038
:10037000689491F84EB5341758F0442341F0532F48
:10038000541B5695569521F0450F342F01C03CE47F
:100390003EBD0895E199FECF4EBBE09A3DB308956E
:1003A000E199FECF4EBB3DBBF894E29AE19A789476
:1003B00008950027111B21E1441F551F2A9509F4B8
:1003C0000895001F111F031B104028F4030F08F4A9
:1003D00013958894F1CF0894EFCF132F002717952A
:1003E0000795179507951F73532F4427401B510BF3
:0203F00008956E
:00000001FF
